:020000040800F2
:10000000A81D002001010008CD15000829150008D1
:10001000C9150008910100089118000800000000AF
:10002000000000000000000000000000C1160008F1
:10003000950100080000000041160008E5160008C0
:100040001B0100081B0100081B0100081B01000820
:100050001B0100081B0100081B0100081B01000810
:100060001B0100081B0100081B0100081B01000800
:100070001B0100081B0100081B0100081B010008F0
:100080001B0100081B0100081B0100081B010008E0
:100090001B0100081B0100081B0100081B010008D0
:1000A0001B010008911700081B0100081B01000834
:1000B0001B0100081B0100081B0100081B010008B0
:1000C0001B0100081B0100081B0100081B010008A0
:1000D0001B0100081B0100081B0100081B01000890
:1000E0001B0100081B0100081B010008DFF80CD0F1
:1000F00000F03CF800480047F5190008A81D002052
:100100000648804706480047FEE7FEE7FEE7FEE7B1
:10011000FEE7FEE7FEE7FEE7FEE7FEE78D170008D5
:10012000ED00000840EA01039B0703D009E008C97D
:10013000121F08C0042AFAD203E011F8013B00F8AC
:10014000013B521EF9D27047D2B201E000F8012BF8
:10015000491EFBD270470022F6E710B513460A4647
:1001600004461946FFF7F0FF204610BD064C074D28
:1001700006E0E06840F0010394E807009847103477
:10018000AC42F6D3FFF7B6FF64440008844400088D
:10019000FFE7FEE77047000081B0EFF3108072B612
:1001A0000090FFE7FEE7000090B00F900E91002056
:1001B0000D900990FFE70E9800680D99C84000283F
:1001C00000F07F81FFE70D99012088400C900E9888
:1001D00000680C9908400B900B980C99884240F0ED
:1001E0006C81FFE70E9840680590002851D0FFE72A
:1001F000059801283AD0FFE7059802283FD0FFE78D
:10020000059803285FD0FFE70598112832D0FFE753
:100210000598122838D0FFE705980021C1F2110196
:10022000884236D0FFE705980021C1F212018842CA
:100230002FD0FFE705980021C1F22101884228D084
:10024000FFE705980021C1F22201884221D0FFE793
:1002500005980021C1F2310188421AD0FFE70598C4
:100260000021C1F23201884213D02FE00E98C068FD
:1002700009902CE00E98C0680430099027E00E9891
:10028000C0680830099022E00E98C0680C300990D0
:100290001DE00E98806818B9FFE70420099011E06E
:1002A0000E988068012806D1FFE7082009900C9875
:1002B0000F99086105E0082009900C980F99486192
:1002C000FFE7FFE703E00020099000E0FFE70B985D
:1002D000FF2803D8FFE70F98049003E00F9804303D
:1002E0000490FFE7049808900B98FF2804D8FFE7D4
:1002F0000D988000039006E00D996FF01F0000EB51
:1003000081000390FFE70398079008980068079A18
:100310000F2191408843099991400843089908604A
:100320000E98C079C006002840F1C680FFE7FFE7BD
:1003300041F21800C4F20200016841F001010160BD
:10034000006800F0010006900698FFE70D9820F085
:1003500003000821C4F2010140580A900D9800F0F2
:10036000030081000F2000FA01F10A9888430A90E7
:100370000F9840F60001C4F20101884203D1FFE763
:100380000020029026E00F9840F60041C4F20101DF
:10039000884203D1FFE70120019018E00F9841F255
:1003A0000001C4F20101884203D1FFE7022000905E
:1003B0000AE00F9941F20042C4F201020420914286
:1003C00008BF03200090FFE700980190FFE7019825
:1003D0000290FFE702980D9901F00301890000FAED
:1003E00001F10A9808430A900A980D9921F0030137
:1003F0000822C4F2010288500E988079C0060028B5
:1004000009D5FFE70B9A40F20841C4F201010868E0
:100410001043086008E00B9A40F20841C4F2010161
:10042000086890430860FFE70E98807980060028EE
:1004300009D5FFE70B9A40F20C41C4F201010868AC
:100440001043086008E00B9A40F20C41C4F201012D
:10045000086890430860FFE70E98807980070028BD
:1004600009D5FFE70B9A40F20441C4F20101086884
:100470001043086008E00B9A40F20441C4F2010105
:10048000086890430860FFE70E988079C00748B17C
:10049000FFE70B9A40F20041C4F2010108681043E3
:1004A000086008E00B9A40F20041C4F201010868BC
:1004B00090430860FFE7FFE7FFE70D9801300D90DC
:1004C00079E610B07047000082B00190ADF80210DC
:1004D0008DF801209DF8010028B1FFE7BDF802006A
:1004E0000199086105E0BDF8020000040199086166
:1004F000FFE702B07047000041F68C00C2F2000036
:100500000068704740F20400C2F20000027841F631
:100510008C01C2F2000108681044086070470000B6
:1005200080B542F20001C4F20201086840F01000F8
:100530000860032000F0D4F80F2000F005F800F068
:1005400071F8002080BD000080B58CB00B900020B9
:10055000059004908DF80B00FFE741F21800C4F2FB
:100560000200016841F400610160006800F400606D
:1005700001900198FFE706A803A900F0E5F900F053
:1005800013FA059005984DF68361C4F21B31A0FB68
:1005900001014FF0FF3000EB9140049040F2CC603D
:1005A000C2F2000042F60041C4F20101016040F2D3
:1005B000E731C1600499416000210161816081617E
:1005C00000F0A8FD8DF80B009DF80B0028BBFFE79D
:1005D00040F2CC60C2F2000000F0EEFD8DF80B009E
:1005E0009DF80B00C0B9FFE7192000F055F80B98F3
:1005F0000F280CD8FFE70B991920002200F056F8BD
:100600000B9840F20801C2F20001086003E00120EB
:100610008DF80B00FFE7FFE7FFE79DF80B000CB03C
:1006200080BD000080B584B0FFE741F21800C4F23D
:100630000200016841F001010160006800F0010062
:1006400003900398FFE7FFE741F21C00C4F20200A9
:10065000016841F080510160006800F08050029014
:100660000298FFE76FF001000F21002200F01EF852
:10067000FFE70421C4F2010108680190019820F00D
:10068000E0600190019840F00070019001980860CE
:10069000FFE704B080BD000080B582B08DF8070090
:1006A0009DF9070001F0F6F802B080BD80B586B074
:1006B0008DF81700049103920020029001F002F9D6
:1006C00002909DF91700019002980499039A00F096
:1006D0007FFF0146019801F0FDF806B080BD0000E3
:1006E00080B582B00190019801F016F902B080BD8A
:1006F00080B584B002900191029820B9FFE70120F3
:100700008DF80F001BE1019842F20001C4F20201D2
:10071000096801F00701884216D9FFE742F200009C
:10072000C4F20200016821F00701019A114301603F
:10073000006800F007000199884204D0FFE701201B
:100740008DF80F00FBE0FFE7029800788007002893
:100750002AD5FFE7029800784007002809D5FFE76F
:1007600041F20401C4F20201086840F4E06008604C
:10077000FFE7029800780007002809D5FFE741F25B
:100780000401C4F20201086840F460500860FFE709
:1007900041F20401C4F20201086820F0F000029A5C
:1007A000926810430860FFE702980078C0070028AD
:1007B00060D0FFE70298406801280ED1FFE741F2C0
:1007C0000000C4F2020000688003002804D4FFE7A0
:1007D00001208DF80F00B2E021E002984068022865
:1007E0000ED1FFE741F20000C4F202000068800170
:1007F000002804D4FFE701208DF80F009FE00DE0F2
:1008000041F20000C4F2020000688007002804D40E
:10081000FFE701208DF80F0091E0FFE7FFE741F2CD
:100820000401C4F20201086820F00300029A526831
:1008300010430860FFF760FE0090FFE741F20400FC
:10084000C4F20200006800F00C0002994968B0EBA5
:10085000810F0ED0FFE7FFF74FFE0099401A41F2DB
:100860008931884204D3FFE703208DF80F0066E04A
:10087000E4E7FFE7019842F20001C4F202010968CF
:1008800001F00701884216D2FFE742F20000C4F2ED
:100890000200016821F00701019A1143016000681C
:1008A00000F007000199884204D0FFE701208DF88D
:1008B0000F0044E0FFE702980078400700280CD5BD
:1008C000FFE741F20401C4F20201086820F4E0608D
:1008D000029AD26810430860FFE702980078000788
:1008E00000280DD5FFE741F20401C4F202010868B7
:1008F00020F46050029A126940EAC2000860FFE7E3
:1009000000F064F841F20401C4F202010968C9B2BE
:100910000A0944F21241C0F60001895CC84040F265
:100920000001C2F20001086040F20800C2F20000BB
:100930000068FFF709FE00208DF80F00FFE79DF823
:100940000F0004B080BD000082B0019000910199B9
:100950000F20086041F20400C4F20200016801F0B7
:100960000301019A5160016801F0F001019A916060
:10097000016801F4E061019AD160006800F4605000
:10098000C0080199086142F20000C4F20200006848
:1009900000F007000099086002B0704740F20000C4
:1009A000C2F200000068704780B5FFF7F7FF41F220
:1009B0000401C4F202010968C1F3C22244F22241D7
:1009C000C0F60001895CC84080BD000086B00020F0
:1009D0000590049003900290019041F20400C4F24B
:1009E000020000680590059800F00C000146009197
:1009F00000283FD0FFE70098042804D0FFE70098C4
:100A0000082806D037E041F20020C0F27A000190B9
:100A100037E00598C0F3834144F22A40C0F6000055
:100A2000405C02909DF81600C007C0B1FFE741F29C
:100A30000400C4F202000068C0F3404144F23A40AE
:100A4000C0F60000405C0490029841F20021C0F220
:100A50007A0148430499B0FBF1F0039007E0029853
:100A600040F60011C0F23D0148430390FFE70398B0
:100A7000019006E0FFE741F20020C0F27A00019009
:100A8000FFE7019806B0704780B586B004900498DF
:100A900020B9FFE701208DF817002EE304980078B5
:100AA000C007002800F0AE80FFE741F20400C4F266
:100AB0000200006800F00C00042813D0FFE741F2A8
:100AC0000400C4F20200006800F00C0008281BD1EA
:100AD000FFE741F20400C4F202000068C0030028EE
:100AE00012D5FFE741F20000C4F202000068800363
:100AF000002808D5FFE70498406820B9FFE70120E7
:100B00008DF81700F9E27CE0FFE704984068B0F543
:100B1000803F09D1FFE741F20001C4F202010868F9
:100B200040F48030086032E00498406868B9FFE71C
:100B300041F20001C4F20201086820F4803008602C
:100B4000086820F48020086020E004984068B0F530
:100B5000A02F0DD1FFE741F20001C4F202010868A5
:100B600040F480200860086840F4803008600CE0A1
:100B700041F20001C4F20201086820F480300860EC
:100B8000086820F480200860FFE7FFE7FFE7FFE741
:100B900004984068D0B1FFE7FFF7AEFC0390FFE791
:100BA00041F20000C4F202000068800300280CD467
:100BB000FFE7FFF7A1FC0399401A652804D3FFE77C
:100BC00003208DF8170098E2EAE719E0FFF794FC9C
:100BD0000390FFE741F20000C4F2020000688003C6
:100BE00000280CD5FFE7FFF787FC0399401A65281A
:100BF00004D3FFE703208DF817007EE2EAE7FFE762
:100C0000FFE7FFE7049800788007002840F18D8017
:100C1000FFE741F20400C4F20200006810F00C0F7C
:100C200013D0FFE741F20400C4F20200006800F0B4
:100C30000C00082829D1FFE741F20400C4F20200A9
:100C40000068C003002820D4FFE741F20000C4F28E
:100C5000020000688007002809D5FFE704980069B2
:100C6000012804D0FFE701208DF8170045E241F28A
:100C70000001C4F20201086820F0F800049A5269E9
:100C800040EAC2000860FFE74EE00498006958B3EC
:100C9000FFE70021C4F2422101200860FFF72CFC8D
:100CA0000390FFE741F20000C4F2020000688007F1
:100CB00000280CD4FFE7FFF71FFC0399401A032814
:100CC00004D3FFE703208DF8170016E2EAE741F2AC
:100CD0000001C4F20201086820F0F800049A526989
:100CE00040EAC20008601EE00021C4F24221002058
:100CF0000860FFF701FC0390FFE741F20000C4F237
:100D000002000068800700280CD5FFE7FFF7F4FB1E
:100D10000399401A032804D3FFE703208DF8170036
:100D2000EBE1EAE7FFE7FFE7FFE704980078000759
:100D3000002848D5FFE70498806918B3FFE740F220
:100D40008041C4F2422101200860FFF7D5FB0390E7
:100D5000FFE741F22400C4F2020000688007002887
:100D60000CD4FFE7FFF7C8FB0399401A032804D30C
:100D7000FFE703208DF81700BFE1EAE7012000F04C
:100D800081FC1FE040F28041C4F242210020086053
:100D9000FFF7B2FB0390FFE741F22400C4F2020028
:100DA0000068800700280CD5FFE7FFF7A5FB039933
:100DB000401A032804D3FFE703208DF817009CE1B5
:100DC000EAE7FFE7FFE7049800784007002840F1D2
:100DD000D880FFE700208DF8070041F21C00C4F224
:100DE00002000068C000002813D4FFE7FFE741F2CB
:100DF0001C00C4F20200016841F0805101600068EB
:100E000000F0805000900098FFE701208DF8070067
:100E1000FFE747F20000C4F200000068C0050028A8
:100E200022D4FFE747F20001C4F20001086840F451
:100E300080700860FFF760FB0390FFE747F2000057
:100E4000C4F200000068C00500280CD4FFE7FFF7DB
:100E500053FB0399401A652804D3FFE703208DF85C
:100E600017004AE1EAE7FFE7FFE70498C0680128B6
:100E700009D1FFE741F22001C4F20201086840F005
:100E80000100086031E00498C06868B9FFE741F2EA
:100E90002001C4F20201086820F00100086008681F
:100EA00020F0040008601FE00498C06805280DD1F8
:100EB000FFE741F22001C4F20201086840F004009B
:100EC0000860086840F0010008600CE041F2200171
:100ED000C4F20201086820F001000860086820F0F0
:100EE00004000860FFE7FFE7FFE7FFE70498C0683A
:100EF000E0B1FFE7FFF700FB0390FFE741F22000BE
:100F0000C4F202000068800700280ED4FFE7FFF754
:100F1000F3FA0399401A41F28931884204D3FFE77A
:100F200003208DF81700E8E0E8E71BE0FFF7E4FA9C
:100F30000390FFE741F22000C4F20200006880073E
:100F400000280ED5FFE7FFF7D7FA0399401A41F2C0
:100F50008931884204D3FFE703208DF81700CCE0E5
:100F6000E8E7FFE79DF80700012809D1FFE741F214
:100F70001C01C4F20201086820F080500860FFE7FD
:100F8000FFE70498C069002800F0B380FFE741F252
:100F90000400C4F20200006800F00C00082800F011
:100FA0008280FFE70498C06902285CD1FFE76021D6
:100FB000C4F2422100200860FFF79EFA0390FFE789
:100FC00041F20000C4F202000068800100280CD544
:100FD000FFE7FFF791FA0399401A032804D3FFE7CC
:100FE00003208DF8170088E0EAE70498006AB0F55E
:100FF000803F0CD1FFE741F20401C4F2020108680E
:1010000020F40030049A926810430860FFE741F230
:101010000401C4F20201086820F47410049B1A6AE7
:101020005B6A1A43104308606021C4F24221012028
:101030000860FFF761FA0390FFE741F20000C4F295
:1010400002000068800100280CD4FFE7FFF754FA83
:101050000399401A032804D3FFE703208DF81700F3
:101060004BE0EAE71EE06021C4F242210020086064
:10107000FFF742FA0390FFE741F20000C4F20200DA
:101080000068800100280CD5FFE7FFF735FA0399C7
:10109000401A032804D3FFE703208DF817002CE043
:1010A000EAE7FFE724E00498C069012804D1FFE7DC
:1010B00001208DF8170020E041F20400C4F2020084
:1010C00000680290029800F480300499096A88420E
:1010D00008D1FFE7029800F470100499496A884229
:1010E00004D0FFE701208DF8170006E0FFE7FFE7D7
:1010F000FFE700208DF81700FFE79DF8170006B006
:1011000080BD000081B0009001B0704781B00090B8
:1011100001B0704780B582B00090009820B9FFE719
:1011200001208DF807003FE0009890F83D0040B99D
:10113000FFE70099002081F83C00009800F038F8A3
:10114000FFE70099022081F83D00009951F8040B57
:1011500000F026FB0099012081F84600FFE7009986
:10116000012081F83E00009981F83F00009981F844
:101170004000009981F84100FFE7FFE70099012056
:1011800081F84200009981F84300009981F84400F9
:10119000009981F84500FFE70099012081F83D00A2
:1011A00000208DF80700FFE79DF8070002B080BD22
:1011B00081B0009001B0704783B00190019890F821
:1011C0003D00012804D0FFE701208DF80B0047E027
:1011D0000199022081F83D0001980168C86840F03B
:1011E0000100C8600198006842F60041C4F20101A4
:1011F000884218D0FFE701980068B0F1804F12D004
:10120000FFE70198006840F20041C4F20001884203
:1012100009D0FFE70198006840F60001C4F2000120
:10122000884212D1FFE701980068806800F007004B
:1012300000900098062807D0FFE701980168086829
:1012400040F001000860FFE706E0019801680868C7
:1012500040F001000860FFE700208DF80B00FFE779
:101260009DF80B0003B0704781B0009001B070474B
:1012700080B582B0019001980068006900F0020119
:101280000020B0EB510F28D0FFE701980068C0683C
:1012900000F002010020B0EB510F1DD0FFE70198D4
:1012A00001686FF002000861019901200877019838
:1012B00000688069800720B1FFE70198FFF7D4FF3D
:1012C00006E0019800F012F9019800F013F9FFE729
:1012D000019900200877FFE7FFE70198006800699F
:1012E00000F004010020B0EB910F29D0FFE7019836
:1012F0000068C06800F004010020B0EB910F1ED020
:10130000FFE7019801686FF004000861019902206D
:10131000087701980068806910F4407F04D0FFE7E7
:101320000198FFF7A1FF06E0019800F0DFF80198AF
:1013300000F0E0F8FFE7019900200877FFE7FFE7FA
:1013400001980068006900F008010020B0EBD10F9F
:1013500028D0FFE701980068C06800F0080100206D
:10136000B0EBD10F1DD0FFE7019801686FF00800C6
:10137000086101990420087701980068C069800716
:1013800020B1FFE70198FFF76FFF06E0019800F03A
:10139000ADF8019800F0AEF8FFE70199002008775A
:1013A000FFE7FFE701980068006900F010010020E6
:1013B000B0EB111F29D0FFE701980068C06800F06A
:1013C00010010020B0EB111F1ED0FFE7019801684B
:1013D0006FF01000086101990820087701980068F3
:1013E000C06910F4407F04D0FFE70198FFF73CFF8D
:1013F00006E0019800F07AF8019800F07BF8FFE72A
:10140000019900200877FFE7FFE70198006800696D
:10141000C00780B1FFE701980068C068C00748B105
:10142000FFE7019801686FF001000861019800F082
:1014300065F8FFE7FFE7019800680069C1B2002086
:10144000B0EBD11F13D0FFE701980068C068C1B2AC
:101450000020B0EBD11F09D0FFE7019801686FF0C1
:10146000800008610198FFF74DFEFFE7FFE7019854
:101470000068006900F040010020B0EB911F14D01B
:10148000FFE701980068C06800F040010020B0EB61
:10149000911F09D0FFE7019801686FF040000861D3
:1014A000019800F03DF8FFE7FFE701980068006948
:1014B00000F020010020B0EB511F14D0FFE701988D
:1014C0000068C06800F020010020B0EB511F09D077
:1014D000FFE7019801686FF0200008610198FFF7AD
:1014E00015FEFFE7FFE702B080BD000081B000906D
:1014F00001B0704781B0009001B0704780B582B0F4
:1015000001900198006842F60041C4F2010188424E
:1015100003D1FFE7FEF7F6FFFFE702B080BD000052
:1015200081B0009001B07047FFE7FEE780B58AB058
:1015300000200990089007900690FFE741F21800FC
:10154000C4F20200016841F010010160006800F07F
:10155000100005900598FFE7FFE741F21800C4F27C
:101560000200016841F020010160006800F02000E5
:1015700004900498FFE7FFE741F21800C4F202006C
:10158000016841F004010160006800F0040003906C
:101590000398FFE741F20000C4F2010002904FF40B
:1015A0000051009101220192FEF78EFF009A0199ED
:1015B000029806920791002108910321099106A93A
:1015C000FEF7F2FD0AB080BDFFE7FEE7FFE7FEE7AA
:1015D00088B0079006910592079800F007000490E4
:1015E0000498C0F10700052803D3FFE70420019009
:1015F00004E00498C0F107000190FFE70198039010
:1016000004980430062803D8FFE70020009003E088
:10161000049803380090FFE7009802900698039919
:10162000012202FA01F101390840029B9840059914
:101630009A40013A1140084308B07047000000008A
:10164000EFF30980BFF36F8F0D4B1A6820E9F00F9D
:1016500010602DE908404FF0500080F3118801F030
:10166000FDFD4FF0000080F31188BDE808401968C7
:101670000868B0E8F00F80F30988BFF36F8F7047F8
:101680000C08002082B00190019840F20001C2F2E3
:1016900000010968C90844F6D352C1F26202A1FBF5
:1016A0000221890948430090FFE700BFFFE7009847
:1016B000411E00910028F8D1FFE702B070470000FA
:1016C000074B19680868B0E8F00F80F30988BFF38A
:1016D0006F8F4FF0000080F311884EF00D0E7047B1
:1016E0000C08002080B582B04FF0500080F31188C4
:1016F000BFF36F8FBFF34F8F009002F055FB40B1E7
:10170000FFE74EF60451CEF200014FF08050086022
:10171000FFE700200190019880F3118802B080BD9E
:1017200080B590B006A800902821FEF714FD00981F
:1017300000230593049303930293019301220692DD
:101740004FF48031079108930A9202220D920E9174
:101750004FF4E0110F91FFF797F918B1FFE7FEF78B
:101760001BFDFFE70F200190022102910020039052
:101770004FF480620492059001A8FEF7B9FF18B1FA
:10178000FFE7FEF709FDFFE710B080BD70470000DE
:1017900080B540F2CC60C2F20000FFF769FD80BD69
:1017A00083B002900191029800680090029842F67E
:1017B0000041C4F20101884215D0FFE70298B0F160
:1017C000804F10D0FFE7029840F20041C4F20001C0
:1017D000884208D0FFE7029840F60001C4F20001F9
:1017E00088420AD1FFE7009820F07000009001982D
:1017F0004168009808430090FFE7029842F60041D4
:10180000C4F20101884215D0FFE70298B0F1804F81
:1018100010D0FFE7029840F20041C4F20001884274
:1018200008D0FFE7029840F60001C4F200018842A8
:101830000AD1FFE7009820F4407000900198C16839
:10184000009808430090FFE7009820F0800001997D
:1018500049690843009000980299086001988068DF
:101860000299C8620198006802998862029842F65B
:101870000041C4F20101884205D1FFE701980069E7
:1018800002990863FFE702990120486103B070479D
:10189000FFE7FEE781B08DF803009DF90300002803
:1018A0000ED4FFE79DF9031001F01F0201209040C4
:1018B0004A094EF20011CEF2000141F82200FFE782
:1018C00001B070474EF60C50CEF200000068C0F335
:1018D0000220704782B08DF8070000919DF9070043
:1018E00000280AD4FFE7009800019DF907104EF286
:1018F0000042CEF2000288540BE0009800019DF8EF
:10190000071001F00F014EF61452CEF20002885477
:10191000FFE702B07047000083B00290029800F029
:10192000070000904EF60C51CEF2000108680190BD
:1019300001984FF6FF02104001900198009A40EA8A
:1019400002200022C0F2FA52104301900198086070
:1019500003B0704780B582B0694600234B60012018
:10196000086042F67120C0F6000044F25741C0F60C
:101970000001802202F03CF901F0F8FB02B080BDCA
:1019800080B582B00190FFE740F21470C2F200000F
:101990000078C00780B9FFE740F21471C2F200017D
:1019A0000120087041F20000C4F201004FF4005120
:1019B0000022FEF789FD18E040F21470C2F2000028
:1019C0000078C00780B1FFE740F21471C2F2000155
:1019D0000020087041F20000C4F201004FF40051F1
:1019E0000122FEF771FDFFE7FFE7642001F098FA9E
:1019F000CAE7000080B582B000200190FEF790FD9C
:101A0000FFF78EFEFFF792FDFFE7FFF7A3FFFFE76B
:101A1000FEE7000080B584B00390029141F6981073
:101A2000C2F200000068009040F60C00C2F2000014
:101A30000068043001F03EF808B9FFE700E0FFE776
:101A40000398013080B9FFE7029868B1FFE740F6DC
:101A50000C00C2F200000068011D41F67010C2F2D5
:101A6000000001F0CDF83DE0009803990844019092
:101A7000019840F60C01C2F2000109684860019823
:101A8000009988420ED2FFE740F61C00C2F2000027
:101A9000006840F60C01C2F200010968043101F04F
:101AA00079F81EE040F61400C2F20000006840F62B
:101AB0000C01C2F200010968043101F06BF80198D1
:101AC00041F60811C2F200010968884207D2FFE717
:101AD000019841F60811C2F20001086000E0FFE73A
:101AE000FFE7FFE704B080BD80B582B0019001F050
:101AF000A5F841F69001C2F20001086801300860C3
:101B000040F60C00C2F20000006898B9FFE70198A7
:101B100040F60C01C2F20001086041F69000C2F2EA
:101B200000000068012803D1FFE700F0EDFA00E0B3
:101B3000FFE71CE041F66410C2F200000068A0B9A3
:101B4000FFE740F60C00C2F200000068C06A01998D
:101B5000C96A884207D8FFE7019840F60C01C2F233
:101B60000001086000E0FFE700E0FFE7FFE741F663
:101B7000A000C2F200000168013101600068019913
:101B800048640198C06A41F6A401C2F200010968E4
:101B9000884208D9FFE70198C06A41F6A401C2F261
:101BA00000010860FFE70199C86A00EB800240F677
:101BB0002400C2F2000000EB8200043101F020F8A2
:101BC00001F068F841F66410C2F200000068C8B184
:101BD000FFE740F60C00C2F200000068C06A0199FD
:101BE000C96A88420CD2FFE74EF60451CEF20001DA
:101BF0004FF080500860BFF34F8FBFF36F8F00E04E
:101C0000FFE700E0FFE702B080BD000080B584B0D0
:101C100001F014F841F69C10C2F2000000680028A0
:101C200040D1FFE741F6A800C2F20000029000F0A8
:101C300091FF41F6BC00C2F20000039000F08AFF61
:101C40000299039840F61002C2F20002116040F6B9
:101C50002001C2F20001086069460020086040F2DD
:101C60001572C2F2000240F2B873C2F200030A20F9
:101C7000102101F0CBFB014641F69C10C2F200009E
:101C80000160006860B1FFE741F69C10C2F20000FD
:101C9000006844F24141C0F6000101F0E5F800E0BF
:101CA000FFE700E0FFE700F0F5FF04B080BD0000B3
:101CB00080B582B0FFE741F69400C2F200000068F0
:101CC00008B3FFE700F0BAFF41F68410C2F200004B
:101CD000C068C06801900198043000F0EBFE41F646
:101CE0009001C2F2000108680138086041F69401D1
:101CF000C2F2000108680138086000F0CBFF0198CB
:101D000000F08CF8D7E702B080BD000080B582B04B
:101D1000019000910198006CB8B1FFE70199C86883
:101D20000A6C1044C86001984168C068884204D3B6
:101D3000FFE701990868C86000E0FFE70098019A92
:101D4000D168126CFEF7EEF9FFE702B080BD00002B
:101D500080B586B00590049103920020029005980A
:101D6000806B01900598006C78B9FFE705980068D2
:101D700048B9FFE70598406802F0F8F80290059925
:101D80000020486000E0FFE741E00398B8B9FFE7B2
:101D9000059A04999068126CFEF7C4F90599886851
:101DA0000A6C10448860059841688068884204D3B2
:101DB000FFE705990868886000E0FFE726E0059ADC
:101DC0000499D068126CFEF7ADF90599C8680A6CE1
:101DD000801AC86005980168C068884206D2FFE78B
:101DE000059948680A6C801AC86000E0FFE703980C
:101DF000022809D1FFE7019820B1FFE701980138D7
:101E0000019000E0FFE700E0FFE7FFE7FFE7019850
:101E1000013005998863029806B080BD80B582B014
:101E20000090009890F8590040B9FFE70098006BC7
:101E300000F056FF009800F053FF1CE0009890F867
:101E40005900012804D1FFE7009800F049FF11E094
:101E5000009890F8590002280BD0FFE74FF050008F
:101E600080F31188BFF36F8FBFF34F8F0190FFE7AF
:101E7000FEE7FFE7FFE702B080BD000082B00190FF
:101E800040F61000C2F2000000680068B0FA80F06E
:101E90004009019908600198006848B9FFE740F6D9
:101EA0001000C2F200000068C0680068009002E004
:101EB00000200090FFE7009802B0704784B04FF414
:101EC0004060009040F68440C2F2000001909DF80E
:101ED0000400400788B1FFE701980730019001989E
:101EE00020F007000190019A40F68441C2F20001FF
:101EF0000098891A08440090FFE70198029002991F
:101F000041F66810C2F200000160002141600298B1
:101F1000009A10440190019808380190019820F02F
:101F200007000190019A40F61800C2F2000002601A
:101F30000268516002681160029903910199039A45
:101F4000891A51600068039908600398406841F657
:101F50000411C2F2000108600398406841F6FC01D8
:101F6000C2F20001086041F6D001C2F200014FF058
:101F70000040086004B0704780B582B00190FFE770
:101F8000FFF796FE40F62400C2F200000068022827
:101F90000CD3FFE74EF60451CEF200014FF0805013
:101FA0000860BFF34F8FBFF36F8F00E0FFE7E7E7F5
:101FB00080B584B0DDF818C00390029101928DF8CD
:101FC0000330029818B9FFE70698006003E0019813
:101FD00006990860FFE703980699C8630298069976
:101FE00008640698012101F097FA9DF8030006990C
:101FF00081F84C0004B080BD80B588B0DDF834C0F5
:10200000DDF830C0DDF82CC0DDF828C00690059161
:10201000049203930C98006B04998900A522FEF7A3
:1020200093F80C98006B049900EB8100043802903F
:10203000029820F0070002909DF80800400758B170
:10204000FFE74FF0500080F31188BFF36F8FBFF3AD
:102050004F8F0790FFE7FEE700200190FFE7019810
:102060000F2813D8FFE70598019A805C0C9911445A
:1020700081F8340005980199405608B9FFE705E05A
:10208000FFE7FFE7019801300190E8E70C99002095
:1020900081F843000A98382803D3FFE737200A90D5
:1020A00000E0FFE70A980C99C8620A980C99C86486
:1020B0000C990020009008650C98043000F062FD37
:1020C0000C98183000F05EFD00980C9909610A998F
:1020D000C1F138010C9A91610C9949620C994865DB
:1020E0000C9981F8580002980699039A00F098FC20
:1020F0000C9908600B9820B1FFE70C980B990860C9
:1021000000E0FFE708B080BD80B584B000200390F8
:10211000FFE70398372810D8FFE7039800EB80010A
:1021200040F62400C2F2000000EB810000F012FD36
:10213000FFE7039801300390EBE741F6D400C2F2C9
:102140000000019000F006FD41F6E800C2F2000038
:10215000029000F0FFFC41F61010C2F2000000F007
:10216000F9FC41F68410C2F2000000F0F3FC41F6E5
:102170007010C2F2000000F0EDFC0199029840F6E8
:102180001402C2F20002116040F61C01C2F200010A
:10219000086004B080BD000083B0029041F6681072
:1021A000C2F200000190FFE701980068029988429E
:1021B00005D2FFE7FFE7019800680190F4E7019876
:1021C000009000980199496808440299884209D111
:1021D000FFE70298426801994868104448600198F6
:1021E000029000E0FFE70298009000980299496889
:1021F000084401990968884220D1FFE701980068E6
:1022000040F61801C2F20001096888420DD0FFE7CC
:102210000198006842680299486810444860019833
:10222000006800680299086007E040F61800C2F2F2
:102230000000006802990860FFE704E00198006868
:1022400002990860FFE701980299884204D0FFE7ED
:1022500002980199086000E0FFE703B070470000B2
:1022600080B586B0059004910392029300200190FE
:10227000049805994860059800610498039988427C
:1022800016D8FFE703980299401A05998969884290
:1022900003D3FFE70120019009E040F62000C2F2DD
:1022A000000000680599043100F074FCFFE717E0B6
:1022B00003980299884208D2FFE70498029988425D
:1022C00003D3FFE70120019009E040F61000C2F2BD
:1022D000000000680599043100F05CFCFFE7FFE7AF
:1022E000019806B080BD000080B582B0019000F07A
:1022F000A5FC0198806B18B9FFE70120009002E06F
:1023000000200090FFE700F0C5FC009802B080BDFF
:1023100080B582B0019000F091FC0198806B01992A
:10232000C96B884203D1FFE70120009002E0002042
:102330000090FFE700F0AEFC009802B080BD000006
:1023400006480068006880F3088862B661B6BFF38B
:102350004F8FBFF36F8F00DF00BF00BF08ED00E0BD
:1023600080B586B00490039140F61000C2F20000E0
:102370000068C068C06801900198043000F09AFBC2
:102380000198C069012823D1FFE70198049B816966
:102390001944039AFFF764FFC0B1FFE70198049A5C
:1023A000694600230B60194601F0CCFF02900298A9
:1023B00058B9FFE74FF0500080F31188BFF36F8FDB
:1023C000BFF34F8F0590FFE7FEE700E0FFE700E077
:1023D000FFE70198416A884706B080BD80B58EB09E
:1023E000FFE741F69C10C2F20000006807A9002236
:1023F00001F0AAFA002800F09780FFE70798B0F1F3
:10240000FF3F17DCFFE707A804300290029858B995
:10241000FFE74FF0500080F31188BFF36F8FBFF3D9
:102420004F8F0B90FFE7FEE702990A6848688968BA
:10243000904700E0FFE70798002800F17480FFE76D
:10244000099806900698406928B1FFE7069804307D
:1024500000F030FB00E0FFE705A800F0D9F803909A
:102460000798019009285CD80199DFE801F005057B
:102470000534354F050534350698089B81691944A4
:10248000039AFFF7EDFE20B3FFE70698416A8847FD
:102490000698C06901281AD1FFE706980899826951
:1024A0000A44694600230B60194601F04BFF049073
:1024B000049858B9FFE74FF0500080F31188BFF33C
:1024C0006F8FBFF34F8F0C90FFE7FEE700E0FFE751
:1024D00000E0FFE726E025E0089806998861069865
:1024E000806958B9FFE74FF0500080F31188BFF3BF
:1024F0006F8FBFF34F8F0D90FFE7FEE70698039BAA
:10250000816919441A46FFF7ABFE0BE0069890F874
:102510002C0020B9FFE7069800F0E2FB00E0FFE79F
:1025200000E0FFE7FFE75CE70EB080BD80B584B058
:102530000390029100F08AFE684600F069F801906D
:102540000098D8BBFFE7029860B9FFE703980199AC
:10255000884207D8FFE701F0E7FD03980199FFF7EC
:10256000FFFE2AE0029858B1FFE740F62000C2F2D1
:10257000000000680068B0FA80F040090290FFE7B0
:1025800041F69C10C2F2000000680399019A891A72
:10259000029A00F093FC01F0C7FD60B9FFE74EF628
:1025A0000451CEF200014FF080500860BFF34F8F0E
:1025B000BFF36F8F00E0FFE7FFE702E001F0B4FD3B
:1025C000FFE704B080BD000081B040F61400C2F205
:1025D00000000068006840B9FFE741F60811C2F248
:1025E00000014FF0FF3008600FE040F61400C2F227
:1025F00000000068C068C06800900098406841F61C
:102600000811C2F200010860FFE701B07047000046
:1026100080B582B0019001F0BDFB0090009840F6BB
:102620000801C2F200010968884206D2FFE700F003
:1026300011F801990120086003E001990020086069
:10264000FFE7009840F60801C2F200010860009818
:1026500002B080BD80B588B0FFE740F61000C2F23E
:1026600000000068006800284CD0FFE740F610002A
:10267000C2F200000168C968096806910068C06874
:10268000C06803900398043000F014FA0398416A7C
:1026900088470398C069012832D1FFE7069803995B
:1026A0008969084405900598069988420FD9FFE783
:1026B0000598039948600398006140F61000C2F243
:1026C000000000680399043100F064FA17E00398F1
:1026D000069A694600230B60194601F033FE02900A
:1026E000029858B9FFE74FF0500080F31188BFF30C
:1026F0006F8FBFF34F8F0790FFE7FEE7FFE700E024
:10270000FFE7AAE740F61002C2F200021068049048
:1027100040F62001C2F200010868106004980860C9
:1027200008B080BD83B00020009040F20C00C2F2DF
:1027300000000068013058B1FFE74FF0500080F30F
:102740001188BFF36F8FBFF34F8F0190FFE7FEE754
:102750004FF0500080F31188BFF36F8FBFF34F8F9E
:102760000290FFE7009808B9FFE7FBE703B0704766
:1027700080B584B00390FFE701A8FFF77FFB0290CC
:1027800002980199FFF7D2FEFFF728FEF4E7000058
:1027900080B582B0019000F051FA019890F84500A0
:1027A0008DF80300FFE79DF90300012816DBFFE722
:1027B0000198406A58B1FFE70198243001F04CFCC1
:1027C00018B1FFE700F07EFC00E0FFE700E005E065
:1027D0009DF8030001388DF80300E4E70199FF201C
:1027E00081F8450000F056FA00F028FA019890F8B8
:1027F00044008DF80200FFE79DF90200012816DB76
:10280000FFE70198006980B1FFE70198103001F0FF
:1028100023FC18B1FFE700F055FC00E0FFE79DF84E
:10282000020001388DF8020000E000E0E4E70199C1
:10283000FF2081F8440000F02DFA02B080BD0000B6
:1028400080B58AB006900020029000F0FFFC40F6B0
:102850001800C2F20000006818B9FFE7FFF72EFB6E
:1028600000E0FFE7069841F6D001C2F200010968D6
:10287000084240F0BE80FFE7069800B3FFE70698E5
:10288000083006909DF818004007B0B1FFE70698A1
:1028900020F00700083006909DF81800400758B156
:1028A000FFE74FF0500080F31188BFF36F8FBFF345
:1028B0004F8F0790FFE7FEE700E0FFE700E0FFE74C
:1028C0000698002800F09380FFE7069841F6FC0187
:1028D000C2F200010968884200F28980FFE741F6F0
:1028E0006810C2F20000049000680590FFE70598A8
:1028F0004168069A00209142019007D2FFE70598AF
:102900000068002818BF01200190FFE70198C00768
:1029100030B1FFE705980490059800680590E6E758
:10292000059840F61801C2F20001096888425CD09F
:10293000FFE7049800680830029005980068049941
:102940000860059840680699401A112821D3FFE7CE
:1029500005980699084403909DF80C00400758B16B
:10296000FFE74FF0500080F31188BFF36F8FBFF384
:102970004F8F0890FFE7FEE7059840680699401AD8
:10298000039948600698059948600398FFF704FC8E
:1029900000E0FFE70598426841F6FC00C2F2000043
:1029A0000168891A0160006841F60411C2F2000151
:1029B000096888420BD2FFE741F6FC00C2F2000032
:1029C000006841F60411C2F20001086000E0FFE770
:1029D00041F6D000C2F20000026805994868104331
:1029E000486005990020086000E0FFE700E0FFE78D
:1029F00000E0FFE701F098FB9DF80800400758B1A0
:102A0000FFE74FF0500080F31188BFF36F8FBFF3E3
:102A10004F8F0990FFE7FEE702980AB080BD0000E3
:102A200083B00290019100920298043802900299BA
:102A30004FF080700860029804380290019820F0EE
:102A4000010002990860029804380290029942F24B
:102A50002570C0F6000008600298143802900098B3
:102A600002990860029820380290029803B07047DB
:102A700080B584B0039000F0E1F840F26C20C2F21F
:102A80000000694648600A20086041F68110C0F6DF
:102A9000000044F24E41C0F6000180220023029360
:102AA00001F0A6F800F0F6F8029800F071FA04B010
:102AB00080BD000082B001900198006900900198EB
:102AC0004168806888600199486889684860009812
:102AD00040680199884205D1FFE701988068009914
:102AE000486000E0FFE7019900200861009908684C
:102AF000013808600098006802B0704783B0029007
:102B000001910092029940F21020C2F20000086088
:102B1000019940F21000C2F2000008600099802084
:102B2000086003B07047000083B0029001910092EA
:102B3000029940F27060C2F200000860019940F210
:102B40007020C2F20000086000994FF480700860A5
:102B500003B0704781B00090009901F1080048600F
:102B600000994FF0FF308860009901F10800C860BB
:102B7000009901F10800086100990020086001B087
:102B80007047000081B0009000990020086101B0FA
:102B90007047000084B00390029102980068009092
:102BA0000098013020B9FFE703980069019010E018
:102BB000039808300190FFE7019840680068009989
:102BC000884205D8FFE7FFE7019840680190F3E7E6
:102BD000FFE7019840680299486002984168886060
:102BE00001980299886002980199486003980299B7
:102BF0000861039908680130086004B0704700005C
:102C000083B0029001910298406800900098019969
:102C100048600098806801998860019800998968E7
:102C200048600198009988600298019908610299AA
:102C300008680130086003B07047000082B04FF0B0
:102C4000500080F31188BFF36F8FBFF34F8F009058
:102C500040F20C00C2F2000001680131016000681E
:102C6000012814D1FFE74EF60450CEF200000068B0
:102C7000000658B1FFE74FF0500080F31188BFF312
:102C80006F8FBFF34F8F0190FFE7FEE7FFE702B0C2
:102C90007047000082B040F20C00C2F200000068F1
:102CA00058B9FFE74FF0500080F31188BFF36F8FE2
:102CB000BFF34F8F0090FFE7FEE740F20C00C2F237
:102CC0000000016801390160006830B9FFE70020A9
:102CD0000190019880F31188FFE702B0704700006F
:102CE00080B586B00390039802900398002855D0D1
:102CF000FFE7029808380290029801900198406816
:102D000041F6D001C2F20001096808420BD1FFE789
:102D10004FF0500080F31188BFF36F8FBFF34F8FD8
:102D20000490FFE7FEE70198006858B1FFE74FF015
:102D3000500080F31188BFF36F8FBFF34F8F059062
:102D4000FFE7FEE70198406841F6D001C2F20001BA
:102D50000968084220D0FFE701980068D0B9FFE772
:102D600041F6D000C2F20000026801994868904321
:102D7000486000F06BFA0198426841F6FC01C2F22B
:102D800000010868104408600198FFF705FA01F097
:102D9000CBF900E0FFE700E0FFE7FFE706B080BD0A
:102DA0004EF21001CEF20001002008604EF218022F
:102DB000CEF20002106040F20000C2F20000006893
:102DC00044F6D352C1F26202A0FB02024FF0FF3080
:102DD00000EB92104EF21402CEF2000210600720B7
:102DE0000860704784B0EFF30580019001981028C7
:102DF0001ED3FFE701984EF2F031CEF20001405CA5
:102E00008DF803009DF8030041F68401C2F2000131
:102E1000097888420BDAFFE74FF0500080F3118801
:102E2000BFF36F8FBFF34F8F0290FFE7FEE7FFE71F
:102E30004EF60C50CEF20000006800F4E06041F65F
:102E40008801C2F20001096888420BD9FFE74FF000
:102E5000500080F31188BFF36F8FBFF34F8F039043
:102E6000FFE7FEE704B0704783B0029001910020B5
:102E70000090FFE7009807281DD8FFE7009941F66A
:102E80002410C2F2000050F8310070B9FFE7019839
:102E9000009A41F62411C2F2000141F83200029872
:102EA000009A01EBC201486005E0FFE7FFE70098E8
:102EB00001300090DEE703B07047000080B584B0B9
:102EC00003900291019203980090FFF7B7FE0098DB
:102ED00090F94400013028B9FFE70099002081F8FB
:102EE0004400FFE7009890F94500013028B9FFE75A
:102EF0000099002081F84500FFE7FFF7CBFE00981E
:102F0000806B38B9FFE7009824300299019A00F0ED
:102F100003F900E0FFE70098FFF73AFC04B080BD3A
:102F200080B584B00290002001900298E0B1FFE7E4
:102F300041F69C00C2F20000006858B1FFE74FF074
:102F4000500080F31188BFF36F8FBFF34F8F039052
:102F5000FFE7FEE700F07AF902980021FEF75AFD3C
:102F600001F0E2F8019000E0FFE7019860B9FFE7A7
:102F70004EF60451CEF200014FF080500860BFF3CE
:102F80004F8FBFF36F8F00E0FFE704B080BD0000FC
:102F900080B584B00290FFF751FE029838B9FFE780
:102FA00040F60C00C2F200000068009002E00298B7
:102FB0000090FFE70098019001980430FFF77AFD38
:102FC00008B9FFE700E0FFE70198806A28B1FFE752
:102FD00001981830FFF76EFD00E0FFE741F6A00111
:102FE000C2F20001086801300860019840F60C0147
:102FF000C2F200010968884210D1FFE70198011D63
:1030000041F68410C2F20000FFF7FAFD41F6940188
:10301000C2F200010868013008600CE041F690013E
:10302000C2F200010868013808600198FEF7F6FE58
:10303000FFF7CAFAFFE7FFF72DFE41F66410C2F270
:103040000000006848B3FFE7019840F60C01C2F2A7
:103050000001096888421ED1FFE741F69C00C2F2D8
:103060000000006858B1FFE74FF0500080F311886E
:10307000BFF36F8FBFF34F8F0390FFE7FEE74EF66E
:103080000451CEF200014FF080500860BFF34F8F23
:10309000BFF36F8F00E0FFE7FFE704B080BD0000E3
:1030A00081B0009041F60C10C2F200000068009957
:1030B000086041F69810C2F200000068009948606C
:1030C00001B0704741F6A411C2F20001012008606E
:1030D0007047000080B584B002900191029858B901
:1030E000FFE74FF0500080F31188BFF36F8FBFF3FD
:1030F0004F8F0390FFE7FEE7029840F60C01C2F203
:10310000000109681831FFF745FD01980121FEF71C
:1031100081FC04B080BD000080B584B002900191B4
:103120000092029858B9FFE74FF0500080F31188E1
:10313000BFF36F8FBFF34F8F0390FFE7FEE7029857
:1031400040F60C01C2F2000109681831FFF758FD82
:10315000009820B1FFE74FF0FF300190FFE70198A2
:103160000099FEF757FC04B080BD000080B58AB01E
:10317000002003900690059006A805A904AAFFF771
:10318000BDFC039B049A0599DDF818C06846C0F899
:1031900008C04160036041F67970C0F6000044F257
:1031A0003C41C0F6000100F073FD014641F60010FD
:1031B000C2F200000160006818B1FFE7012007902B
:1031C00002E000200790FFE70798012804D1FFE7FD
:1031D00001F06EF8079000E0FFE70798012823D17F
:1031E000FFE74FF0500080F31188BFF36F8FBFF3FC
:1031F0004F8F089041F60811C2F200014FF0FF30E6
:10320000086041F66411C2F200010120086041F635
:103210009811C2F200010020086000F083F808B1A4
:10322000FFE700E0FFE70FE00798013058B9FFE73C
:103230004FF0500080F31188BFF36F8FBFF34F8FB3
:103240000990FFE7FEE7FFE70AB080BD41F69C0169
:10325000C2F20001086801300860704783B041F68F
:103260009C00C2F20000006838B1FFE741F6A411EB
:10327000C2F200010120086051E041F6A411C2F23F
:1032800000010020086041F6A400C2F200000068BE
:103290000190FFE7019800EB800140F62400C2F2A4
:1032A000000050F8210090B9FFE7019858B9FFE7F6
:1032B0004FF0500080F31188BFF36F8FBFF34F8F33
:1032C0000290FFE7FEE7019801380190E2E70198DC
:1032D00000EB800140F62400C2F2000000EB810008
:1032E0000090009948684068486000994868083133
:1032F000884205D1FFE70099486840684860FFE7C9
:1033000000984068C06840F60C01C2F200010860F5
:10331000019841F6A401C2F200010860FFE703B082
:103320007047000080B586B04EF20040CEF200003B
:10333000039001780491FF21017000788DF80B0053
:103340009DF80B0000F0500041F68401C2F200012C
:10335000087041F68801C2F2000107200860FFE70B
:103360009DF80B00000600280DD5FFE741F6880107
:10337000C2F200010868013808609DF80B004000A7
:103380008DF80B00ECE741F68800C2F200000068FF
:1033900003280BD0FFE74FF0500080F31188BFF3F4
:1033A0006F8FBFF34F8F0590FFE7FEE741F688016F
:1033B000C2F20001086800020860086800F4E060DA
:1033C000086004984EF20041CEF2000108704EF6FB
:1033D0002051CEF20001086840F4700008600868CF
:1033E00040F070400860FFF7DBFC40F20C01C2F2D5
:1033F0000001002001900860FEF7A2FFFFF72EFFFA
:10340000FFF790F9019806B080BD000080B590B03C
:1034100084461298CDF828C00991089207938DF838
:103420001B000A9858B9FFE74FF0500080F311884D
:10343000BFF36F8FBFF34F8F0B90FFE7FEE7079847
:1034400058B9FFE74FF0500080F31188BFF36F8F3A
:10345000BFF34F8F0C90FFE7FEE708990020039021
:1034600031B1FFE70998B0FA80F040090390FFE717
:103470000398C00758B1FFE74FF0500080F3118860
:10348000BFF36F8FBFF34F8F0D90FFE7FEE70899F3
:103490000020029031B9FFE70998002818BF0120E9
:1034A0000290FFE70298C00758B1FFE74FF05000C5
:1034B00080F31188BFF36F8FBFF34F8F0E90FFE73C
:1034C000FEE750200490049850280BD0FFE74FF0FF
:1034D000500080F31188BFF36F8FBFF34F8F0F90B1
:1034E000FFE7FEE707980590059888B1FFE7059983
:1034F000012081F846000A980999089A9DF81B3026
:10350000DDF814C0EE46CEF800C0FEF751FD00E035
:10351000FFE7059810B080BD80B584B0029001919E
:1035200002980090009858B9FFE74FF0500080F3E0
:103530001188BFF36F8FBFF34F8F0390FFE7FEE754
:10354000FFF77CFB00990B68C86B0A6C00FB02302C
:103550004860009900208863009908688860009995
:103560000B68C86B0A6C013800FB0230C860009918
:10357000FF2081F84400009981F845000198D0B9F6
:10358000FFE700980069A0B1FFE70098103000F055
:1035900063FD60B1FFE74EF60451CEF200014FF03B
:1035A00080500860BFF34F8FBFF36F8F00E0FFE7DD
:1035B00000E0FFE708E000981030FFF7CBFA009832
:1035C0002430FFF7C7FAFFE7FFF764FB012004B0E0
:1035D00080BD000080B592B00C900B910A920993C7
:1035E000002008900C980490049858B9FFE74FF019
:1035F000500080F31188BFF36F8FBFF34F8F0E9091
:10360000FFE7FEE70B990020039039B9FFE7049824
:10361000006C002818BF01200390FFE70398C00743
:1036200058B1FFE74FF0500080F31188BFF36F8F60
:10363000BFF34F8F0F90FFE7FEE7099900200229A3
:10364000029007D1FFE70498C06B013818BF012032
:103650000290FFE70298C00758B1FFE74FF0500013
:1036600080F31188BFF36F8FBFF34F8F1090FFE788
:10367000FEE700F073FB01460020019031B9FFE73F
:103680000A98002818BF01200190FFE70198C007A1
:1036900058B1FFE74FF0500080F31188BFF36F8FF0
:1036A000BFF34F8F1190FFE7FEE7FFE7FFF7C6FA82
:1036B0000498806B0499C96B884204D3FFE709988A
:1036C000022834D1FFE704980B99099AFEF740FBD2
:1036D00007900498406AA0B1FFE70498243000F0F6
:1036E000BBFC60B1FFE74EF60451CEF200014FF093
:1036F00080500860BFF34F8FBFF36F8F00E0FFE78C
:1037000010E0079860B1FFE74EF60451CEF20001D9
:103710004FF080500860BFF34F8FBFF36F8F00E012
:10372000FFE7FFE7FFF7B6FA01200D9065E00A9882
:1037300028B9FFE7FFF7AEFA00200D905DE008988A
:1037400030B9FFE705A8FFF7ABFC0120089000E0C7
:10375000FFE7FFE7FFE7FFF79DFAFFF777FDFFF7CA
:103760006DFA049890F94400013028B9FFE70499F4
:10377000002081F84400FFE7049890F945000130EB
:1037800028B9FFE70499002081F84500FFE7FFF71B
:1037900081FA05A80AA900F0C5F928BBFFE704983B
:1037A000FEF7B6FDC8B1FFE7049810300A99FFF79D
:1037B00091FC0498FEF7ECFF00F0B6FC60B9FFE75F
:1037C0004EF60451CEF200014FF080500860BFF376
:1037D0004F8FBFF36F8FFFE705E00498FEF7D8FF28
:1037E00000F0A2FCFFE707E00498FEF7D1FF00F02D
:1037F0009BFC00200D9000E058E70D9812B080BDB2
:1038000080B590B0099008910792069309980390AB
:10381000039858B9FFE74FF0500080F31188BFF3C9
:103820006F8FBFF34F8F0A90FFE7FEE708990020E4
:10383000019039B9FFE70398006C002818BF0120F8
:103840000190FFE70198C00758B1FFE74FF0500023
:1038500080F31188BFF36F8FBFF34F8F0B90FFE79B
:10386000FEE7069900200229009007D1FFE70398A0
:10387000C06B013818BF01200090FFE70098C00717
:1038800058B1FFE74FF0500080F31188BFF36F8FFE
:10389000BFF34F8F0C90FFE7FEE7FFF7A3FAEFF3BC
:1038A00011814FF0500080F31188BFF36F8FBFF389
:1038B0004F8F0E910D900E9804900398806B039992
:1038C000C96B884204D3FFE70698022830D1FFE78E
:1038D000039890F845008DF80B0003980899069A14
:1038E000FEF736FA9DF90B000130B8B9FFE70398EF
:1038F000406A88B1FFE70398243000F0ADFB48B17F
:10390000FFE7079820B1FFE707990120086000E072
:10391000FFE700E0FFE700E0FFE706E09DF80B00AF
:103920000130039981F84500FFE70120059002E08E
:1039300000200590FFE704980F900F9880F31188FE
:10394000059810B080BD000080B58EB00990089138
:1039500007920020069009980390039858B9FFE752
:103960004FF0500080F31188BFF36F8FBFF34F8F7C
:103970000B90FFE7FEE708990020019039B9FFE7B7
:103980000398006C002818BF01200190FFE7019800
:10399000C00758B1FFE74FF0500080F31188BFF324
:1039A0006F8FBFF34F8F0C90FFE7FEE700F0D6F963
:1039B00001460020009031B9FFE70798002818BFA2
:1039C00001200090FFE70098C00758B1FFE74FF0D3
:1039D000500080F31188BFF36F8FBFF34F8F0D90AE
:1039E000FFE7FEE7FFE7FFF729F90398806B0290F6
:1039F000029830B3FFE703980899FEF787F9029819
:103A000001380399886303980069A0B1FFE7039820
:103A1000103000F021FB60B1FFE74EF60451CEF20A
:103A200000014FF080500860BFF34F8FBFF36F8FDE
:103A300000E0FFE700E0FFE7FFF72CF901200A9024
:103A40006DE0079828B9FFE7FFF724F900200A90F6
:103A500065E0069830B9FFE704A8FFF721FB0120D5
:103A6000069000E0FFE7FFE7FFE7FFF713F9FFF736
:103A7000EDFBFFF7E3F8039890F94400013028B913
:103A8000FFE70399002081F84400FFE7039890F9CD
:103A90004500013028B9FFE70399002081F845006F
:103AA000FFE7FFF7F7F804A807A900F03BF830BBE1
:103AB000FFE70398FEF718FCD0B1FFE70398243026
:103AC0000799FFF707FB0398FEF762FE00F02CFB57
:103AD00060B9FFE74EF60451CEF200014FF080507E
:103AE0000860BFF34F8FBFF36F8F00E0FFE705E083
:103AF0000398FEF74DFE00F017FBFFE70EE003987A
:103B0000FEF746FE00F010FB0398FEF7EDFB18B140
:103B1000FFE700200A9002E0FFE7FFE763E70A986B
:103B20000EB080BD80B588B005900491059858B955
:103B3000FFE74FF0500080F31188BFF36F8FBFF3A2
:103B40004F8F0690FFE7FEE7049858B9FFE74FF064
:103B5000500080F31188BFF36F8FBFF34F8F079032
:103B6000FFE7FEE7FFF76AF841F69810C2F200009F
:103B700000680290029805994968401A01900498DB
:103B80000068013018B9FFE7002003902BE041F6F0
:103B90000C10C2F20000006805990968884209D03B
:103BA000FFE7029805994968884203D3FFE701209F
:103BB000039017E001980499096888420BD2FFE747
:103BC000019A04990868801A08600598FFF768FA56
:103BD0000020039005E00499002008600120039074
:103BE000FFE7FFE7FFE7FFF755F8039808B080BD50
:103BF00070B58CB0DDF844C0DDF840C00B900A9180
:103C0000ADF826200893BDF826008000FEF718FEC8
:103C10000590059880B1FFE75C20FEF711FE079044
:103C2000079820B1FFE705980799086303E0059816
:103C3000FFF756F8FFE702E000200790FFE707983C
:103C4000F0B1FFE70798002680F859600B980A99B1
:103C5000BDF82620089BDDF840C0119C079DEE466C
:103C6000CEF80C60CEF80850CEF80440CEF800C074
:103C7000FEF7C2F90798FDF737FF0120069003E031
:103C80004FF0FF300690FFE706980CB070BD0000C3
:103C9000B0B58EB0DDF850C0DDF84CC0DDF848C0DE
:103CA0000A90099108920793139858B9FFE74FF0CB
:103CB000500080F31188BFF36F8FBFF34F8F0B90CD
:103CC000FFE7FEE7149858B9FFE74FF0500080F384
:103CD0001188BFF36F8FBFF34F8F0C90FFE7FEE7A4
:103CE0005C20049004985C280BD0FFE74FF0500054
:103CF00080F31188BFF36F8FBFF34F8F0D90FFE7F5
:103D0000FEE7149820B3FFE7139808B3FFE7149871
:103D100006901398069908630699022081F85900C5
:103D20000A980999089A079BDDF848C0069CEE4658
:103D30000025CEF80C50CEF8084005ACCEF8044073
:103D4000CEF800C0FEF758F90698FDF7CDFE02E068
:103D500000200590FFE705980EB0B0BD81B041F698
:103D60006410C2F20000006818B9FFE7012000905B
:103D70000DE041F69C00C2F20000006818B9FFE7B0
:103D80000220009002E000200090FFE7FFE700988B
:103D900001B0704781B041F69810C2F2000000688F
:103DA0000090009801B0704780B586B00020029066
:103DB00041F69C00C2F200000068002840F0C0807C
:103DC000FFE741F69811C2F2000108680130019046
:103DD00001980860019858BBFFE740F61400C2F252
:103DE00000000068006858B1FFE74FF0500080F312
:103DF0001188BFF36F8FBFF34F8F0590FFE7FEE78A
:103E000040F61402C2F200021068009040F61C0155
:103E1000C2F20001086810600098086041F60C11B9
:103E2000C2F20001086801300860FEF7CDFB00E037
:103E3000FFE7019841F60811C2F2000109688842C3
:103E400068D3FFE7FFE740F61400C2F20000006805
:103E5000006840B9FFE741F60811C2F200014FF0D7
:103E6000FF30086055E040F61400C2F20000006820
:103E7000C068C06804900498406803900198039952
:103E8000884207D2FFE7039841F60811C2F2000109
:103E900008603EE0FFE704980430FEF70BFE04984C
:103EA000806A28B1FFE704981830FEF703FE00E0AF
:103EB000FFE70498C06A41F6A401C2F20001096854
:103EC000884208D9FFE70498C06A41F6A401C2F20B
:103ED00000010860FFE70499C86A00EB800240F621
:103EE0002400C2F2000000EB82000431FEF788FEDD
:103EF0000498C06A40F60C01C2F200010968C96A60
:103F0000884203D3FFE70120029000E0FFE7FFE7CC
:103F100099E7FFE740F60C00C2F200000068C06AB3
:103F200000EB800140F62400C2F2000050F82100AE
:103F3000022803D3FFE70120029000E0FFE707E03B
:103F400041F69801C2F20001086801300860FFE7FD
:103F500041F6A410C2F20000006818B1FFE701208A
:103F6000029000E0FFE7029806B080BD80B586B001
:103F7000039003980290002001900398002867D0D6
:103F8000FFE7029840F60C01C2F20001096888427E
:103F90000BD0FFE74FF0500080F31188BFF36F8F15
:103FA000BFF34F8F0490FFE7FEE70298006D58B90A
:103FB000FFE74FF0500080F31188BFF36F8FBFF31E
:103FC0004F8F0590FFE7FEE70299086D01380865FD
:103FD0000299C86AC96C884238D0FFE70298006D20
:103FE00090BBFFE702980430FEF764FD08B9FFE7D5
:103FF00000E0FFE70299C86CC8620299C86AC0F184
:10400000380088610298C06A41F6A401C2F200013A
:104010000968884208D9FFE70298C06A41F6A401FE
:10402000C2F200010860FFE70299C86A00EB800253
:1040300040F62400C2F2000000EB82000431FEF7DB
:10404000DFFD0120019000E0FFE700E0FFE700E076
:10405000FFE7019806B080BD80B584B00290029859
:10406000C068C0680190019858B9FFE74FF0500050
:1040700080F31188BFF36F8FBFF34F8F0390FFE77B
:10408000FEE701981830FEF715FD41F69C00C2F2DC
:104090000000006820BBFFE701980430FEF70AFD2E
:1040A0000198C06A41F6A401C2F200010968884281
:1040B00008D9FFE70198C06A41F6A401C2F20001E5
:1040C0000860FFE70199C86A00EB800240F624000F
:1040D000C2F2000000EB82000431FEF791FD09E01E
:1040E000019800F1180141F61010C2F20000FEF72D
:1040F00087FDFFE70198C06A40F60C01C2F200019B
:104100000968C96A884208D9FFE70120009041F692
:10411000A411C2F20001086002E000200090FFE755
:10412000009804B080BD000080B584B000200290EB
:10413000019041F69C00C2F20000006858B9FFE708
:104140004FF0500080F31188BFF36F8FBFF34F8F94
:104150000390FFE7FEE7FEF771FD41F69C00C2F217
:1041600000000168013901600068002840F0998072
:10417000FFE741F69000C2F200000068002800F05E
:104180008F80FFE7FFE741F61010C2F200000068E1
:10419000002842D0FFE741F61010C2F20000C068CC
:1041A000C068029002981830FEF784FC0298043030
:1041B000FEF780FC0298C06A41F6A401C2F2000139
:1041C0000968884208D9FFE70298C06A41F6A4014D
:1041D000C2F200010860FFE70299C86A00EB8002A2
:1041E00040F62400C2F2000000EB82000431FEF72A
:1041F00007FD0298C06A40F60C01C2F2000109688E
:10420000C96A884207D3FFE741F6A411C2F2000150
:104210000120086000E0FFE7B5E7029818B1FFE76A
:10422000FEF7D2F9FFE741F69800C2F200000068FD
:1042300000900098E0B1FFE7FFE7FFF7B5FD38B168
:10424000FFE741F6A411C2F200010120086000E07E
:10425000FFE7009801380090FFE700980028ECD1B4
:10426000FFE741F69801C2F200010020086000E07B
:10427000FFE741F6A410C2F20000006870B1FFE74A
:10428000012001904EF60451CEF200014FF0805013
:104290000860BFF34F8FBFF36F8F00E0FFE7FFE7CA
:1042A00000E0FFE7FEF7F6FC019804B080BD0000D7
:1042B00080B58AB000200890FDF7A8FC41F69C105C
:1042C000C2F20000006858B3FFE700200490079096
:1042D000069007A806A905AAFEF726FC049B059AE6
:1042E0000698DDF81CC06946C1F808C04860022085
:1042F000086042F27170C0F6000044F24641C0F618
:104300000001FFF7C5FC014641F6A010C2F2000013
:104310000160006818B1FFE701200890FFE700E0A6
:10432000FFE7089858B9FFE74FF0500080F3118875
:10433000BFF36F8FBFF34F8F0990FFE7FEE7089839
:104340000AB080BD80B58AB0DDF830C00890079112
:104350000692059300200490089858B9FFE74FF0A3
:10436000500080F31188BFF36F8FBFF34F8F099018
:10437000FFE7FEE741F69C10C2F200000068A8B318
:10438000FFE7079800900698019008980290079818
:1043900005281EDCFFE7FFF7E1FC02280CD1FFE750
:1043A00041F69C10C2F2000000680C9A6946002396
:1043B000FFF710F904900BE041F69C10C2F20000E8
:1043C0000068694600231A46FFF704F90490FFE7E6
:1043D0000BE041F69C10C2F200000068059A6946A5
:1043E0000023FFF70DFA0490FFE700E0FFE70498D1
:1043F0000AB080BD02E008C8121F08C1002AFAD125
:1044000070477047002001E001C1121F002AFBD154
:1044100070470000000000000000010203040607CE
:104420000809000000000102030402030405060756
:1044300008090A0B0C0D0E0F1010010249444C45DF
:1044400000546D725100546D7220537663006C6598
:10445000645F7461736B0073746172745F74617311
:104460006B000000884400080000002010000000DD
:10447000F44300089844000810000020981D000034
:1044800004440008000000000024F40001000000C3
:0844900010000000AAAAAAAA6C
:04000005080000ED02
:00000001FF
